:020000040800F2
:10000000A0D200203103000891660008375800088C
:100010002D660008091B0008719F00080000000001
:100020000000000000000000000000007102000855
:100030004525000800000000CD020008F9770008FF
:100040004B0300084B0300084B0300084B03000858
:100050004B0300084B0300084B0300084B03000848
:100060004B0300084B0300084B0300084B03000838
:100070007D2400084B0300084B0300084B030008D5
:100080004B0300084B0300084B0300084B03000818
:100090000D1B00084B0300084B03000889250008CE
:1000A0004B0300084B0300084B0300084B030008F8
:1000B000CD7800084B0300084B0300084B030008F1
:1000C0004B0300084B0300084B0300084B030008D8
:1000D0004B0300087D7E00084B030008897E000862
:1000E0004B0300084B0300084B0300084B030008B8
:1000F0004B0300084B0300084B0300084B030008A8
:100100004B0300084B0300084B0300084B03000897
:100110004B0300084B0300084B0300084B03000887
:100120004B0300084B030008892400084B03000818
:100130004B0300084B0300084B0300084B03000867
:10014000191B00084B0300084B03000899660008C0
:100150004B0300084B030008952400084B030008DC
:100160004B0300084B0300084B0300084B03000837
:100170004B0300084B0300084B030008000000007D
:100180004B0300084B03000800F002F800F060F891
:100190000AA090E8000C82448344AAF10107DA45E2
:1001A00001D100F055F8AFF2090EBAE80F0013F0D4
:1001B000010F18BFFB1A43F0010318479CE200002F
:1001C000BCE200000A444FF0000C10F8013B13F0B1
:1001D000070408BF10F8014B1D1108BF10F8015BA0
:1001E000641E05D010F8016B641E01F8016BF9D193
:1001F00013F0080F1EBF10F8014BAD1C0C1B09D1EA
:100200006D1E58BF01F801CBFAD505E014F8016B5B
:1002100001F8016B6D1EF9D59142D6D370470000ED
:100220000023002400250026103A28BF78C1FBD8FF
:10023000520728BF30C148BF0B6070471FB50DF093
:100240001BF99DE8030000F073FF1FBD10B510BD42
:1002500001F018F81146FFF7F1FF0AF0EDFE01F08A
:1002600036F803B4FFF7F2FF03BC01F06DF80000AD
:100270002C4B19680868B0E8F04F80F30988BFF389
:100280006F8F4FF0000080F311887047000000006E
:1002900008480068006880F308884FF0000080F389
:1002A000148862B661B6BFF34F8FBFF36F8F00DF64
:1002B00000BF00BF08ED00E0DFF80C00016841F46A
:1002C00070010160704700BF88ED00E0EFF3098026
:1002D000BFF36F8F134B1A681EF0100F08BF20ED8D
:1002E000108A20E9F04F106009B44FF0500080F3FD
:1002F0001188BFF34F8FBFF36F8F0BF02DFB4FF0C3
:10030000000080F3118809BC19680868B0E8F04F54
:100310001EF0100F08BFB0EC108A80F30988BFF3FD
:100320006F8F704708050020EFF3058070470000CD
:100330000948804709480047FEE7FEE7FEE7FEE779
:10034000FEE7FEE7FEE7FEE7FEE7FEE704480549B5
:10035000054A064B70470000BD7800088901000877
:10036000A0920020A0D20020A0B20020A0B20020C5
:100370009FED1A1AF5EE000A40EE010ABDEEE00A02
:10038000F5EEC00A10EE100AF1EE10FA38BF401E6A
:1003900000EE100A1349F7EE001AB8EEC00A30EE6C
:1003A000C00ADFED0F0A20EE200AFCEEC00A10EEB4
:1003B000900AC0F3080000EE900A01EB8000F8EE0E
:1003C000600A90ED011A70EE600A90ED000A71EE7D
:1003D000E01A21EE800A00EE810A704783F9223E7E
:1003E00000000044C4DA0008B5EEC00AF1EE10FACD
:1003F00007D2DFED1E0AB4EEE00AF1EE10FAA8BF54
:100400007047DFED1B0AB5EEC00A60EE200ABDEEB4
:10041000E01A11EE100AF1EE10FA38BF401E00EE9D
:10042000100A1549F7EE001AB8EEC00A30EEC00AFD
:10043000DFED100A60EE200ABCEEE00A10EE100AB2
:10044000C0F3080000EE100A01EB8000B8EE400A8D
:1004500090ED011A70EEC00A90ED000A71EEE01AFC
:1004600021EE800A00EE810A70470000CD024CB4F4
:1004700083F9223E00000044C4DA000870B4058805
:100480000E884468D1F804C05368B54208D140884A
:100490004988884201BF11888D425188884203D023
:1004A00070BC6FF00200704705FB00F1880827D090
:1004B00094ED001ADCED000A94ED010ADCED011A5E
:1004C00031EE201AD4ED020A70EE211A9CED020AD8
:1004D00083ED001AC3ED011A94ED031ADCED031A43
:1004E00030EE800A401E71EE210A83ED020A04F10B
:1004F0001004C3ED030A03F110030CF1100CD7D163
:1005000011F0030030D0B0F1004F30D200282BDDC5
:10051000211F1B1FACF1040210F0010F0AD091ED56
:10052000010AD2ED010A091D121D30EE200A83EDE9
:10053000010A1B1D400817D091ED010AD2ED010AF6
:10054000401E30EE200A83ED010A91ED020AD2ED41
:10055000020A01F1080102F1080230EE200A83EDDF
:10056000020A03F10803E7D170BC00207047B4EC25
:10057000010A401EFCEC010A30EE200AA3EC010A3D
:10058000F5D1F1E701804280436070472DE9F34FD8
:1005900084B0049840680090486801900498B0F8CE
:1005A00000E04588DFEDFE0A00200290B0EE600A10
:1005B000AE4506D108884988884204BF7146864501
:1005C00004D06FF0020006B0BDE8F08F01985FEA3A
:1005D000010C18BFB7EE001A3DD000BFBEEB0C01F6
:1005E00017D0B1F1004F80F01F82002911DD021FEA
:1005F00011F0010F1CBFC2ED010A121D4B1006D0F5
:10060000C2ED010AC2ED020A08325B1EF8D100EB0E
:100610008100BCF10102A0EC011A19D0B2F1004F27
:1006200080F00882002A13DD031F12F0010F1CBFA7
:10063000C3ED010A1B1D511008D000BFC3ED010A14
:10064000C3ED020A491E03F10803F7D100EB820053
:10065000BCF1010CC2D14FF000080395002D14BF6E
:10066000B0EE602A002000F0BF8100BF009908FBB7
:1006700005F001EB800B0199DBED002A01EB800016
:100680000346F0EE421AC64552D9AEEB0802ABEB78
:10069000850112F0010F17D001EB850191ED000AE1
:1006A000B5EEC00AF1EE10FA07DDB4EEE10AF1EEA4
:1006B00010FA09DDF0EE401A06E0B1EE400AF4EE61
:1006C000C01AF1EE10FAF5D3521031D001EB850CBF
:1006D0009CED000AB5EEC00AF1EE10FA05DDB4EEAD
:1006E000E10AF1EE10FA09DD06E0B1EE400AF4EE9F
:1006F000C01AF1EE10FA01D2F0EE401A01EBC5017A
:1007000091ED000AB5EEC00AF1EE10FA05DDB4EE87
:10071000E10AF1EE10FA09DD06E0B1EE400AF4EE6E
:10072000C01AF1EE10FA01D2F0EE401A521ECDD1ED
:10073000F5EEC01AF1EE10FA00F07381F5EEC02A62
:100740000126F1EE10FA0099D4BFB1EE620AB0EEC4
:10075000620AB4EE610AF1EE10FA1CBFAEEB0802B9
:10076000B2F1010C47D005FB08F201EB820292EDD9
:10077000001A00BFB0EE410A05FB06F4B5EEC00A50
:1007800000EB8404F1EE10FACCBFF0EE400AF1EE7B
:10079000400AF4EE610AF1EE10FA28D1B5EB080C2C
:1007A00011D0BCF1004F7DD2BCF1000F0BDD00BFBA
:1007B00092ED000AD1ED000ABCF1010CE2EC010A55
:1007C000A1EC010AF4D129000ED0B1F1004F6AD298
:1007D000002909DD94ED000AD0ED000A491EE4EC81
:1007E000010AA0EC010AF5D1012002900BE0761C71
:1007F000BCF1010CBED10298012804D0F5EEC02A4C
:10080000F1EE10FA7ED09BED000AB5EB08009A4697
:100810005946064622D0B0F1004F74D200281DDDA3
:10082000091F10F0010F06D0F0EE400A80EEA01A6A
:1008300081ED011A091D401010D000BFD1ED010A51
:10084000401E80EE801A81ED011A91ED021AC1EE70
:10085000000AC1ED020A01F10801EFD1280026D0FB
:10086000B0F1004F7ED2002821DDAAF1040110F082
:10087000010F06D0D1ED010A80EE801A81ED011A38
:10088000091D401013D000BFD1ED010A401E80EEBB
:10089000801A81ED011AD1ED020A80EE801A81EDF5
:1008A000021A01E0CBE0D6E001F10801ECD1DDE96C
:1008B00000124FF000095FEA0E0773D0C14504BF74
:1008C00001EB860102EB850274D091ED000ADC4653
:1008D0005046331E35D01C46B6F1004F7ED2002C58
:1008E0002FDD0B1FABF1040C16F0010F0FD0F0EE53
:1008F000400ADCED011AB0EE601A00EEE11A83ED59
:10090000011A01E08DE0B1E01B1D0CF1040C741024
:1009100015D000BFD3ED010A9CED011A40EE410A4B
:10092000C3ED010AD3ED020A9CED021A0CF1080C8A
:1009300040EE410AC3ED020A0833641EEAD101EB1E
:1009400086012B0036D0B3F1004F72D2002B31DD7F
:10095000A2F1040CAAF1040013F0010F0CD0DCED9D
:10096000010A00E08BE090ED011A001D40EE410A03
:10097000CCED010A0CF1040C5C1019D0DCED010A7D
:1009800090ED011A40EE410ACCED010ADCED020ABD
:1009900090ED021A083040EE410ACCED020A03E065
:1009A000000000000DE005E0641E0CF1080CE5D12C
:1009B00002EB830201EB88017F1E09F101097FF43C
:1009C0007DAF009808F10108001D00900398401EBB
:1009D00003907FF44BAE0299012900E058E004BF78
:1009E00006B0BDE8F08F00BFB5EEC00AF1EE10FA18
:1009F0007FF4E9AD04990EFB05F3002B4A684FF034
:100A000000010BD902EB810C9CED000AB5EEC00A87
:100A1000F1EE10FA02D1491C8B42F3D88B427FF4DD
:100A2000D2AD6FF00400CEE5E0EC010A491EFBD127
:100A3000EFE538E0E0EC010A521EFBD108E692ED4A
:100A4000000AD1ED000ABCF1010CE2EC010AA1ECB4
:100A5000010AF4D1B7E694ED000AD0ED000A491E70
:100A6000E4EC010AA0EC010AF5D1BDE6D1ED000AE3
:100A7000401E80EE801AA1EC011AF7D1EEE6D3ED0C
:100A8000000A401E80EE801AA3EC011AF7D10EE78F
:100A9000BCEC011AD1ED000A5B1E40EE410AE1EC0C
:100AA000010AF5D14DE7B0EC011AD2ED000A5B1E48
:100AB00040EE410AE2EC010AF5D17BE72DE9F04F67
:100AC00082B0466853680193058847884B880020A8
:100AD00000900888874201BFB2F800C0654552887F
:100AE00093421EBF6FF0020002B0BDE8F08F9FED91
:100AF000412A4FEA970EC7F3400B00BFDDE9000221
:100B000002EB800A4A6898464FF00009B0EE420AAC
:100B1000B4465FEA0E0025D092ED001ADCED001A13
:100B200002EB8302DCED010A01EE810A92ED001A6C
:100B300002EB8302401ED2ED001A02EB830200EEAC
:100B4000810A9CED021ADCED030A00040CF1100C82
:100B5000000C01EE210A92ED001A02EB830200EE76
:100B6000810AD9D117F0030026D0ACF10404A2EB1E
:100B7000830210F0010F08D002EB8302D4ED010ACA
:100B800092ED001A241D00EE810A5FEA0B0013D0DB
:100B900002EB830CD4ED010A9CED001A02EBC302B8
:100BA000401E00EE810AD4ED020A92ED001A04F113
:100BB000080400EE810AEBD109F10100AAEC010A58
:100BC0001FFA80F9486800EB8902A8F101001FFABA
:100BD00080F8B8F1000F99D1009806EB8706184409
:100BE00080B20090681E05042D0C87D102B0002051
:100BF000BDE8F08F0000000070B405880E884468DE
:100C0000D1F804C05368B54208D140884988884269
:100C100001BF11888D425188884203D070BC6FF0AB
:100C20000200704705FB00F1880827D094ED001AF8
:100C3000DCED000A94ED010ADCED011A31EE601AD8
:100C4000D4ED020A70EE611A9CED020A83ED001ADF
:100C5000C3ED011A94ED031ADCED031A30EEC00A5D
:100C6000401E71EE610A83ED020A04F11004C3ED27
:100C7000030A03F110030CF1100CD7D111F003009B
:100C800030D0B0F1004F30D200282BDD211F1B1FC8
:100C9000ACF1040210F0010F0AD091ED010AD2ED7F
:100CA000010A091D121D30EE600A83ED010A1B1DA9
:100CB000400817D091ED010AD2ED010A401E30EE36
:100CC000600A83ED010A91ED020AD2ED020A01F1F8
:100CD000080102F1080230EE600A83ED020A03F116
:100CE0000803E7D170BC00207047B4EC010A401E35
:100CF000FCEC010A30EE600AA3EC010AF5D1F1E741
:100D00002DE9F04F02884768B0F802804888D1F892
:100D1000049082B04FF0000A1646824207BF09884D
:100D200088456FF0020002B018BFBDE8F08F4FEAAF
:100D3000980B02EB42000190C8F34000CDF8000090
:100D400009EB8A01BBF1000F33D0019801EB820C53
:100D500001EB80043B46E64601EBC2054FEA0B007F
:100D600093ED000A401E81ED000A93ED010A01EBAC
:100D700002118CED000A93ED020A0CEB021C85EDCA
:100D8000000A93ED030A05EB021584ED000A04EB5B
:100D9000021403F11003E3D10EEB820000EB82009A
:100DA00000EB8201ABF10100504307EB0B1701EBA5
:100DB000001118F0030C21D03B1FA1EB82011CF0A5
:100DC000010F06D093ED010A01EB82011B1D81ED9D
:100DD000000A009880B100BF93ED010A01EB820484
:100DE00001EBC20184ED000A93ED020A401E81ED81
:100DF000000A03F10803EFD107EB8C070AF10100A9
:100E00001FFA80FA701E0604360C99D102B0002039
:100E1000BDE8F08F70B5064600F06EF9056806F182
:100E20000B0020F00704B4429CBF002070BD2B468D
:100E30006A68BAB11068A04210D304F10801884270
:100E40003CBF5068586007D3516810194160116861
:100E5000091B016058601460101D70BD1346526874
:100E6000002AE7D12146284600F04EF90028DED1BD
:100E700070BD53EA020C00F069802DE9F04B4FF091
:100E80000006002B1FBFB3FA83F503FA05F424FA1A
:100E900005F65E4012BF1643B2FA82F502FA05F477
:100EA000C5F120051EBF22FA05FC44EA0C042035DA
:100EB00056EA044C4FEA144418BF641C4FF0000873
:100EC0004FF00009904271EB030C39D3002919BF90
:100ED000B1FA81F701FA07F6B0FA80F700FA07F6DF
:100EE000C7F120071EBF20FA07FC46EA0C06203790
:100EF000B6FBF4FCA7EB0507103F07F01F0BCBF187
:100F000020060CFA0BFB2CFA06F644BFB34600266B
:100F1000202FA4BF5E464FF0000B5BEA060C08BF13
:100F20004FF0010B19EB0B09ABFB027C48EB0608F9
:100F3000C01B06FB02CC0BFB03CC71EB0C01C1E721
:100F40000B46024641464846BDE8F08B13B54FF0CC
:100F500000004FF00001AFF30080BDE81C40704777
:100F6000032A40F2308010F0030C00F0158011F8D5
:100F7000013BBCF1020F624498BF11F801CB00F8AD
:100F8000013B38BF11F8013BA2F1040298BF00F801
:100F900001CB38BF00F8013B11F0030300F02580BE
:100FA000083AC0F0088051F8043B083A51F804CBE5
:100FB000A0E80810F5E7121D5CBF51F8043B40F8AB
:100FC000043BAFF30080D20724BF11F8013B11F8B6
:100FD00001CB48BF11F8012B24BF00F8013B00F8FA
:100FE00001CB48BF00F8012B704710B5203AC0F084
:100FF0000B80B1E81850203AA0E81850B1E818501A
:10100000A0E81850BFF4F5AF5FEA027C24BFB1E856
:101010001850A0E8185044BF18C918C0BDE81040C7
:101020005FEA827C24BF51F8043B40F8043B08BFD0
:101030007047D20728BF31F8023B48BF11F8012B97
:1010400028BF20F8023B48BF00F8012B704702F090
:10105000FF0343EA032242EA024200F002B84FF0E3
:1010600000020429C0F0128010F0030C00F01B8075
:10107000CCF1040CBCF1020F18BF00F8012BA8BF83
:1010800020F8022BA1EB0C0100F00DB85FEAC17C47
:1010900024BF00F8012B00F8012B48BF00F8012BFA
:1010A00070474FF0000200B513469446964620392B
:1010B00022BFA0E80C50A0E80C50B1F12001BFF411
:1010C000F7AF090728BFA0E80C5048BF0CC05DF877
:1010D00004EB890028BF40F8042B08BF704748BFC5
:1010E00020F8022B11F0804F18BF00F8012B704739
:1010F00070477047704700000048704744920020D6
:10110000704770477047704738B504460A4600205C
:101110006946AFF30080002808BF38BD0246009939
:10112000204600F075F8012038BD012000F0A2B87B
:10113000F8B5AFF30080054600200C46102000BF34
:101140000646A819A0420DD9324669460020AFF3E1
:101150000080070008BF00F08DF80098A04218BF7B
:101160000546C419FFF7C8FF05600746F01D20F0CB
:1011700007004619284600F00AF8B44208BFF8BD37
:10118000A21B31463868BDE8F84000F041B80021A4
:101190000160C0E9011070471020704770B5044627
:1011A000051FFFF7A9FF0068002C14BF446870BD3D
:1011B000002C18BFAC423CBF20466468F8D30168DD
:1011C0000A18AA4218BF456003D12A68054611448F
:1011D000016028684119A1421CBF6C6070BD616844
:1011E000696021680844286070BD10B500F00CF8F3
:1011F000006810BD10B5044600F006F8046010BD8C
:10120000004870473C920020004870473C92002004
:10121000034640688C46002818BF88423CBF0346FE
:101220004068F8D318681844884207D00CF10300CE
:1012300020F00700001D411A521A0146081D0A60DD
:10124000FFF7ACBF1FB584B000200A9C06AB04AA10
:1012500002A90094AFF3008018B1DDE9020108B0E3
:1012600010BD0348204000F040F800200146F6E79A
:101270000000207C10B500F03FF8BDE8104000F001
:101280002FB870477546FFF7BBFFAE4605006946AD
:10129000534620F00700854618B020B5FFF756F8F2
:1012A000BDE820404FF000064FF000074FF0000867
:1012B0004FF0000B21F00701AC46ACE8C009ACE8E8
:1012C000C009ACE8C009ACE8C0098D46704710B54C
:1012D0000446AFF300802046BDE81040FEF7C1BFD2
:1012E000002801D000F030B8704710B500F04CF87D
:1012F000BDE81040FFF7F4BF10B5012805D000216C
:1013000003A000F027F8012010BD09A1F8E70000B4
:1013100053494752544D454D3A204F7574206F66DE
:101320002068656170206D656D6F72790000000046
:101330003A2048656170206D656D6F727920636F2A
:10134000727275707465640001491820ABBEFEE7C7
:101350002600020070B505460C460A2000E06D1C10
:1013600000F068F835B128780028F8D102E0641C54
:1013700000F060F814B120780028F8D1BDE8704082
:101380000A2000F057B8000010B5022803D0410130
:1013900003D50DA112E0002010BD010101D50FA160
:1013A0000CE0C10001D511A108E0810001D512A116
:1013B00004E0400001D513A100E0002115A0FFF7D3
:1013C000C9FF012010BD0000496E76616C69642080
:1013D0004F7065726174696F6E00000044697669D0
:1013E0006465204279205A65726F00004F766572FD
:1013F000666C6F7700000000556E646572666C6FF6
:1014000077000000496E65786163742052657375DA
:101410006C7400005349474650453A204172697444
:10142000686D6574696320657863657074696F6E53
:101430003A20000008B569468DF800000320ABBED5
:1014400008BD000001221021014802F0BFB90000D0
:101450000000024000221021014802F0B7B900004C
:10146000000002402DE9F041FFF7F4FF802000F07A
:101470007BFA552000F078FA552000F075FAFFF756
:10148000E1FF962001F06AF8FFF7E4FF802000F00A
:101490006BFA552000F068FA552000F065FAFFF766
:1014A000D1FF962001F05AF8FFF7D4FFB6217E2035
:1014B00000F0A0FAFFF7C6FF502001F044F8FFF754
:1014C000C9FF802000F050FA552000F04DFA552059
:1014D00000F04AFAFFF7B6FF962001F03FF8FFF759
:1014E000B9FF802000F040FA552000F03DFA552069
:1014F00000F03AFA0446FFF7A5FF962001F02EF817
:101500001E2C02D0FF20BDE8F0810024174FFFF70A
:10151000A1FF04EB4405EE19785D717800F06AFADA
:10152000FFF790FF962001F019F8FFF793FF785D21
:1015300040F0800000F018FA552000F015FA552010
:1015400000F012FA0546FFF77DFF962001F006F83D
:101550007078A84204D004EB440038448078D2E785
:10156000641CE4B2062CD2D30020CCE7D4030020C4
:1015700001221146014802F029B90000000402408E
:1015800000220121014802F021B9000000040240BC
:10159000F8B500200090FFF7F3FF6946002000F047
:1015A000D7F9FFF7E5FF962000F0D8FFFFF7E8FF37
:1015B0006946002000F0CCF9FFF7DAFF962000F032
:1015C000CDFFFFF7DDFFB621142000F013FAFFF77F
:1015D000CFFF502000F0B7FFFFF7D2FF6946002091
:1015E00000F0B6F9FFF7C4FF962000F0B7FFFFF751
:1015F000C7FF6946002000F0ABF9FFF7B9FF96205E
:1016000000F0ACFF9DF800000F2801D0FF20F8BDCE
:101610000024154FFFF7B4FF04EB4405EE19785D85
:10162000717800F0E7F9FFF7A3FF962000F096FF2E
:10163000FFF7A6FF785D694600F08AF9FFF798FF8B
:10164000962000F08BFF70789DF80010884204D03F
:1016500004EB440038448078F8BD641CE4B2062CE6
:10166000D8D30020F8BD0000E60300207CB5044676
:10167000002000900190FFF7EDFE922000F074F939
:1016800006226946122000F051F9FFF7DBFE9DF8B3
:1016900000009DF8011040EA012000B220849DF86E
:1016A00002109DF8032041EA022109B261849DF8ED
:1016B00004209DF8053042EA032212B2A28400EE13
:1016C000100A454DF8EEC00A95ED000A60EE800A5A
:1016D000C4ED010A00EE901AF8EEE00A60EE800A0E
:1016E000C4ED020A00EE902AF8EEE00A20EE800A2D
:1016F00084ED030AFFF7AEFEA22000F035F90222C6
:101700006946222000F012F9FFF79CFE9DF80000C8
:101710009DF80110C00040EA5110A085B0F5806F1F
:1017200002DBA0F50060A085B4F92C00B4EE001A2D
:1017300000EE100AF8EEC00AB3EE070A00EE810AC6
:1017400084ED070AFFF71CFF08226946002000F01D
:10175000EDF8FFF70DFF9DF800000F2814D19DF85C
:1017600002009DF8031040EA0120E0849DF8040087
:101770009DF8051040EA012020859DF806009DF89F
:10178000071040EA01206085B4F92600D4ED0C0A68
:1017900000EE100AB8EEC01A95ED010A50EE010AEB
:1017A000C4ED040AB4F92800D4ED0D0A01EE100AC4
:1017B000B8EEC11A50EE010AC4ED050AB4F92A00C8
:1017C000D4ED0E0A01EE100AB8EEC11A50EE010A6D
:1017D000C4ED060A7CBD0000CC03002070B50024D7
:1017E000FFF740FE40EA0405FFF7D2FE40EA050499
:1017F000022000F0A8FE002CF2D1BDE870400148A4
:1018000000F002B8280C00207CB5044600200090AF
:101810000190002541F28836FFF71CFE922000F06F
:10182000A3F806226946122000F080F8FFF70AFEAE
:101830009DF801009DF8001041EA002020849DF8E9
:1018400003009DF8021041EA002060849DF8050025
:101850009DF8041041EA0020A084FFF791FE0822C1
:101860006946002000F062F8FFF782FE9DF8000054
:101870000F2838D19DF80300000201B29DF8020044
:101880000143E1849DF805009DF80420000200B2A8
:10189000104320859DF807209DF80630120212B2F1
:1018A0001A43628500EE101A1E49D4ED0C0AB8EEF8
:1018B000C01A91ED010A40EE010AC4ED0C0A00EED7
:1018C000900A94ED0D1AF8EEE00A00EE201A84ED6D
:1018D0000D1A00EE902A94ED0E1AF8EEE00A00EED2
:1018E000201A84ED0E1A012000F02DFE6D1CADB201
:1018F000B54291D3D4ED0C0A9FED0B0A80EE801A0D
:1019000084ED0C1AD4ED0D0A80EE801A84ED0D1AC8
:10191000D4ED0E0A80EE801A84ED0E1A012020709C
:101920007CBD0000CC03002000409C4570B50D46F6
:10193000144640F0800000F017F806E0552000F053
:1019400013F805F8010B641EE4B2002CF6D170BD4B
:1019500010B50C4640F0800000F006F8552000F06D
:1019600003F8207010BD000001B582B00020019086
:101970004FF47A700090012301AA02A9024803F0F3
:10198000C1F89DF804000EBD6C12002010B5F0EEF9
:10199000400A9FED130A134809F0F0F91148124A62
:1019A00090ED0A0A10EE101A914204DD9FED0F0A25
:1019B00080ED0A0A08E0B5EEC00AF1EE10FA03D293
:1019C0009FED0B0A80ED0A0A90ED0A0ABDE810406F
:1019D000BCEEC00A10EE100A80B203F02DBF00006A
:1019E00000002042180700200000FA440000FA44DA
:1019F0000000000010B50C46FFF7B6FF2046BDE81A
:101A00001040FFF7B1BF000000B58BB0282101A83E
:101A1000FFF747FB012109910020079008910190F1
:101A2000029003900490069005900A9001A9104836
:101A300001F058F808B100F0AAFD0D4801F0DFFBF5
:101A400002210B4800F0C2FF0E2006900A9001A967
:101A5000084801F047F808B100F099FD054801F089
:101A6000CEFB0221034800F0B1FF0BB000BD000027
:101A70001C120020441200200D490A6842F08072B6
:101A80000A600C4900224A600B6843F001030B60B6
:101A900009494843094908604FF47A73B0FBF3F3EE
:101AA0004B60054BB0FBF3F08860CA6070470000E4
:101AB000FCED00E0001000E040420F008803002031
:101AC00008B5242000900948094B0168A3F12402BD
:101AD000091D06F0DFF9642000900648064B0168F6
:101AE000A3F16402091D06F0D5F908BD9813002082
:101AF000A40D002054130020E40C00200021014814
:101B000003F0D0BB0C130020FEE70000014801F0F9
:101B1000F5B800001C120020014801F0EFB80000E9
:101B200044120020154E164D164C7069022802D141
:101B3000B169022902D008B1B06920B90020A864B7
:101B4000E8642865686535F8480F010A04F81C1F29
:101B50006070A888010AA170E0702889010A2171CB
:101B60006071A889483D010AA171E0711C3C0548DB
:101B700008F076F9012009F082FAD6E798020020F1
:101B8000900B00206003002004284FF000007047F5
:101B90000020704710B500220449054806F0BAFB42
:101BA0000449034806F0A8FB002010BD1083002064
:101BB00034760020107B002010B50446204604F047
:101BC00037FD2146034806F097FB024806F068FB04
:101BD000002010BD347600200020704710B50A4662
:101BE0000849D1F8BC12D1F81412002901D0012003
:101BF00010BD0146034806F08DFBBDE810400148CA
:101C000006F01EBC3476002010B591ED010AD0ED2F
:101C1000010A30EE600ABDEEC00A10EE102A12B2C0
:101C200091ED000AD0ED000A30EE600ABDEEC00A68
:101C300010EE100A00B200EE100AF8EEC00A00EE34
:101C4000102AB8EEC00A08F015FBDFED020A20EEFC
:101C5000200A10BDE62E65422DE9F0472DED068BDA
:101C6000F549A1F10C00FFF7CFFFDFF8CC9389ED28
:101C7000020AF24DA5F1D00AA5F5A8769FEDF09ADB
:101C8000A869032802D002282ED030E0ED4996ED55
:101C9000041A91ED050AF1EE400A96ED000A10EEE5
:101CA000810A86ED0B0AB5EEC00AF1EE10FA02DDEC
:101CB000F0EE400A01E0F1EE400A10EE901AE24A1E
:101CC00091420EDDBDEEC00A4FF4B47210EE101A50
:101CD00009B291FBF2F302FB131100EE101AB8EEF9
:101CE000C00A86ED0B0A04E0696903290BD086ED72
:101CF0000B9A96ED0B0AB5EEC00AF1EE10FA09DD6B
:101D0000F0EE400A08E0DAED000A30EEC00A86ED97
:101D10000B0AEEE7F1EE400A10EE901ACB4A914220
:101D20000FDDB5EEC00AF1EE10FA02DDF0EE400A6A
:101D300001E0F1EE400A80EE201ADFEDC50A01EE67
:101D4000600A86ED0B0ADFEDC39A9FEDC38BBA4C98
:101D5000643C032878D120EE290AFEF709FBB5F987
:101D60002200B169484300EE900AF8EEE00A20EE46
:101D700020AA96ED0B0A20EE290AFEF735FBB5F9ED
:101D80002000B1694042484300EE900AF8EEE00AB4
:101D900000EE20AA1AEE100A0BF0B8FAC4E90A0104
:101DA00096ED0B0A20EE290AFEF71EFBB5F922007C
:101DB000B1694042484300EE900AF8EEE00A20EE96
:101DC00020AA96ED0B0A20EE290AFEF7D1FAB5F902
:101DD0002000B1694042484300EE900AF8EEE00A64
:101DE00000EE20AA1AEE100A0BF090FAC4E90C01DA
:101DF00084ED0E8B68699A4F032813D1F0EE490ADF
:101E000096ED0B0AA4F1F00008F0B8FFD7ED050A33
:101E1000A4F5A07008F0B2FF10EE100A0BF076FAED
:101E2000C4E90E01686901280ED196ED070AD7EDC5
:101E3000050A8C48B8EEC00A08F0A0FF10EE100AA0
:101E40000BF064FAC4E90E01AF69012F08D168698B
:101E5000022805D184ED0A8B84ED0C8B84ED0E8B6A
:101E6000012F22D1686901281FD186ED0B9A84EDDC
:101E70000E8BDFF8F48196ED058AD8F8010000EEAC
:101E8000100A20EE080A10EE100A0BF03FFAC4E91F
:101E90000A01D8F8050000EE100A20EE080A10EE3C
:101EA000100A0BF033FAC4E90C019FED708B9FED23
:101EB00071AB022F7DD1686903287AD196ED0B0AA8
:101EC00020EE290AFEF790FA86ED0C0A96ED0B0A31
:101ED00020EE290AFEF74CFA86ED0D0A564D99EDD3
:101EE000000A0C3DA5F1F800D5ED000A30EE600ABD
:101EF000F0EE490A08F042FF8AED010A99ED010A65
:101F000095ED011AF0EE490AA5F1A80030EE410A5C
:101F100008F034FF8AED020AF0EE000A9AED010A99
:101F200008F0FEFAB0EE409AF0EE000A9AED020ACE
:101F300008F0F6FA39EE000A10EE100A0BF0E6F996
:101F400041EC100B08F01EFEB0EE409AF0EE609AE5
:101F500096ED030AD6ED0D0A20EE200A10EE100AC7
:101F60000BF0D4F953EC192B0AF0D2FBC4E90A01A7
:101F7000F0EE000A9AED010A08F0D2FAB0EE409AAB
:101F8000F0EE000A9AED020A08F0CAFA39EE000AE9
:101F900010EE100A0BF0BAF941EC100B08F0F2FD4C
:101FA000B0EE409AF0EE609A96ED030AD6ED0C0A78
:101FB00000E00BE020EE200A10EE100A0BF0A6F96C
:101FC00053EC192B0AF0A4FBC4E90C0194ED0A0BA5
:101FD00053EC182B51EC100B0AF039FD02D284EDB2
:101FE0000A8B0EE094ED0A0BB0EE4A9AF0EE6A9A74
:101FF00053EC192B51EC100B0AF04EFB01D284ED7F
:102000000A9B94ED0C0B53EC182B51EC100B0AF0BF
:102010001EFD05D284ED0C8BBDEC068BBDE8F08770
:1020200094ED0C0B53EC1A2B51EC100B0AF034FB13
:10203000F2D284ED0CABEFE7F40B00209802002005
:1020400000000000B40400200000B443000034434A
:102050000000B44398F98E3C00000000000000002E
:1020600070060020500A0020F80300200000000045
:10207000004CCD4000000000004CCDC010B5144A0B
:102080000121144804F01CFC114A124818320121A5
:10209000503004F015FC0E4A0E4830320121A030B9
:1020A00004F00EFC0A4A0B4848320121F03004F0DB
:1020B00007FC074A01219032074804F001FC044A5A
:1020C0000548A8320121BDE81040503804F0F8BBA3
:1020D000D401002010090020A00A0020FFF7CEFF45
:1020E0000A2008F0CCFF104A0121104804F0E8FB58
:1020F0000D4A0E4818320121503004F0E1FB00F087
:1021000023FB04F017FCFFF7A7FD0848A03000F000
:102110000FF800F055FA0548A03000F045F902200C
:1021200008F0ADFFDFE7000034020020F00A0020D5
:102130002DE9F05F04462DED108B914DA868064601
:102140000BF0E4F841EC180B8E48B0F90E90B0F9A2
:102150004E70B0F92EA009EB0701B0F96E80A1EB2B
:102160000A01A1EB08000AF073FA9FED879B53EC7C
:10217000192B0AF0CDFA53EC182B0AF0C9FA09F022
:1021800015FE8346A86330460BF0C0F841EC180BEF
:10219000CA44AAEB0700A0EB08000AF059FA53EC76
:1021A000192B0AF0B5FA53EC182B0AF0B1FA09F022
:1021B000FDFD8146E86330460BF0A8F841EC180BB2
:1021C00007EB080050440AF043FA9FED711B53ECF3
:1021D000112B0AF09DFA53EC182B0AF099FA09F02A
:1021E000E5FD28640BF092F894ED0E8B53EC182B60
:1021F0000AF05EFC9FED68BB53EC1B2B0AF088FADB
:1022000041EC1C0B48460BF081F894ED0C9B53EC11
:10221000192B0AF04DFC41EC1D0B58460BF076F8DB
:1022200094ED0AAB53EC1A2B0AF042FC53EC1D2B35
:1022300009F01EFF53EC1C2B09F01AFF9FED58CB41
:1022400053EC1C2B0AF064FA09F0B0FD2060286CF6
:1022500006460BF05BF853EC182B0AF029FC53EC04
:102260001B2B0AF055FA41EC1D0BE86B07460BF0EF
:102270004DF853EC192B0AF01BFC41EC1E0BA86B1C
:1022800005460BF043F841EC1F0B51EC1A0B09F01B
:1022900081FD8946804653EC1F2B0AF035FD53EC37
:1022A0001E2B09F0E5FE53EC1D2B09F0E1FE53EC6B
:1022B0001C2B0AF02DFA09F079FD606030460BF016
:1022C00025F853EC182B0AF0F3FB53EC1B2B0AF008
:1022D0001FFA41EC1D0B38460BF018F853EC192B84
:1022E0000AF0E6FB41EC1E0B28460BF00FF841EC20
:1022F000110B49EC108B53EC112B51EC100B0AF025
:1023000003FD53EC1E2B0AF0FFFC53EC1D2B09F0D0
:10231000AFFE53EC1C2B0AF0FBF909F047FDA0605F
:1023200030460AF0F3FF53EC182B0AF0C1FB53ECD4
:102330001B2B0AF0EDF941EC180B38460AF0E6FFCA
:1023400053EC192B0AF0B4FB41EC190B28460AF0A8
:10235000DDFF53EC1A2B0AF0ABFB53EC192B0AF000
:10236000D3FC53EC182B09F083FE53EC1C2B0AF022
:10237000CFF909F01BFDE060BDEC108BBDE8F09FCC
:102380004801002034040020000000000000D03F7D
:10239000000000000000B03F0000000000004040CE
:1023A000000000201111C13F70B50446284DB5F959
:1023B0000E0000EE100A2748F8EEC00A94ED000A5D
:1023C00008F0DCFC244ED6ED110A30EE200ABDEEFA
:1023D000C00A84ED120AB5F92E0000EE100A1D485D
:1023E000F8EEC00A94ED010A503008F0C7FCD6EDB3
:1023F000120A30EE200ABDEEC00A84ED130AB5F9C8
:102400004E0000EE100A1348F8EEC00A94ED030ADD
:10241000A03008F0B3FCD6ED130A30EE200ABDEE72
:10242000C00A84ED140AB5F96E0000EE100A0948DE
:10243000F8EEC00A94ED020AF03008F09FFCD6EDE9
:10244000140A30EE200ABDEEC00A84ED150A70BDF4
:10245000340400201009002048010020017E0022E1
:10246000502909D9818B491C89B28183C82902D995
:10247000022181778283704782837047014800F090
:102480004BBF00009C140020014800F045BF000035
:10249000DC130020014800F03FBF00003C14002086
:1024A0000168CAB2103A1823B2FBF3F2064B9B5CE8
:1024B000C3656FF30901032A02D9091D816500E094
:1024C0008165806D70470000BCDA000810B50146D8
:1024D00000208A6A8B694FF0C074002B0ED0B3F5D0
:1024E000005F1AD062B3012A2AD0022A28D0032A18
:1024F00003D1C96AC90100D5012010BD1AB1012A52
:1025000006D0022AF9D1C96AC901F6D5012010BD49
:10251000C96AA142FBD1012010BD52B1012A0AD0E3
:10252000022A06D0032AF7D1C96AA142F4D10120B8
:1025300010BD012010BDC96AC901FBD5012010BD25
:10254000012010BD704770B5054601F047F90446FB
:1025500001F044F9001BA842FAD370BD70B50546DE
:1025600003F05CF9044603F059F9001BA842FAD3C2
:1025700070BD0000034805F037F8052008F07FFD26
:10258000F8E70000D4040020202001F02BB872B638
:10259000FEE70000F6EE000A60EE200A10EE100AD8
:1025A0000649A1EB600000EE100A20EE801AF7EE5B
:1025B000080A41EE400A20EE800A7047865A375FCB
:1025C0004C4890ED000AB5EEC00AF1EE10FA02DDBB
:1025D000B0EE401A01E0B1EE401AD0ED030AF5EE7C
:1025E000C00AF1EE10FA02DDF0EE601A01E0F1EE41
:1025F000601AB4EEE11AF1EE10FA01DCB0EE600AF6
:102600003D4880ED150AB5EEC00AF1EE10FA02DD84
:10261000F0EE400A01E0F1EE400A10EE901A374A5F
:10262000914204DAD0ED080AC0ED160A03E0D0EDBD
:10263000090AC0ED160AD0ED0E1AD0ED0F2A90ED62
:10264000161AF1EE610A70EEE20AB1EE412A60EE6E
:10265000820A60EE800AC0ED110AC0ED120A72EE25
:10266000E11A21EE811A21EE001A80ED141A61EEB2
:10267000821A21EE800A80ED130A10EE902A204B78
:10268000DFED201A20499FED212A9A4202DDC0ED9C
:10269000111A07E0F0EE602A12EE902A8A4201D960
:1026A00080ED112A10EE902A9A4202DDC0ED121A36
:1026B00005E010EE902A8A4201D980ED122A10EE30
:1026C000102A9A4202DDC0ED131A05E010EE102A1E
:1026D0008A4201D980ED132A11EE102A9A4202DDB6
:1026E000C0ED141A704711EE102A8A42FAD980ED13
:1026F000142A704770060020480100200000104195
:102700000080264400802644008026C4008026C421
:1027100010B50B480168001D0468001D00680844DE
:1027200000280BD00822074903F074F90549204618
:102730000422BDE81040103103F06CB910BD000058
:10274000107AFF1FB205002010B52DED0E8B8E48BC
:1027500090ED15CA90ED05DA90ED0DEAD0ED1DCAA9
:102760003CEE0D0A30EE4E0A70EE6C0ADFED87DAB1
:1027700080EEAD0A10EE100A0AF0C8FD9FED848BC2
:1027800053EC182B09F0C4FF9FED839B53EC192BDE
:1027900009F0BEFF9FED82AB53EC1A2B09F09AFDB6
:1027A0009FED81BB53EC1B2B09F0B2FF09F0FEFA41
:1027B0007F4C0EEE900AC4ED17EA3DEE0EDA3DEEC8
:1027C0004C0A70EE6C0A80EEAD0A10EE100A0AF0A8
:1027D0009DFD53EC182B09F09BFF53EC192B09F0CE
:1027E00097FF53EC1A2B09F075FD53EC1B2B09F0E6
:1027F0008FFF09F0DBFA00EE100A84ED180A7DEE77
:102800000C0AB5EE001A70EEAC0A60EE810A9FED7C
:10281000691A60EE811AC4ED191A94ED1A1A7EEE47
:10282000C10AF5EEC00AF1EE10FA02DDB0EE601A50
:1028300001E031EE6E1A604811EE101A9FED5F2A2A
:10284000814204DDC4ED1C0AC4ED1AEA01E084ED06
:102850001C2A94ED1B1A70EE410AF5EEC00AF1EE47
:1028600010FA02DDB0EE601A01E031EE401A11EE0E
:10287000101A814204DDC4ED1D0A84ED1B0A01E03B
:1028800084ED1D2ADFED4E8A21EEA80AFDF770FDCA
:10289000D4ED1C0A20EE208A94ED190A20EE280AB5
:1028A000FDF7A2FDD4ED1D0A00EE608A84ED1E8ABC
:1028B00094ED190A20EE280AFDF75AFDD4ED1D0A01
:1028C000B1EE400A20EE208A94ED190A20EE280A83
:1028D000FDF78AFDD4ED1C0A00EE608A84ED1F8AA4
:1028E0003848D4ED1E0A90ED000A30EE200A80ED43
:1028F000000A90ED010A30EE080A80ED010AD4EDDD
:102900000A0A94ED190A2A49F8EEE00A803170EEBD
:10291000200AC1ED000AB5EEC00AF1EE10FA02DDA0
:10292000F0EE400A01E0F1EE400A10EE901A264A5D
:10293000914223DDB5EEC00AF1EE10FA02DDF0EEB1
:10294000400A01E0F1EE400A4FF4B47280EE201A22
:10295000B5EEC00AC0EE2D0AFDEEE00A10EE901AA8
:10296000514300EE901AF8EEE00AF1EE10FA01DCA5
:10297000B1EE400A30EE600A21EE000A80ED020A54
:10298000BDEC0E8B10BD0000340400200000B443E9
:102990007A008BFCFA21094000000000000063402F
:1029A00039B4C876BE9FE63F000000000000D03F6B
:1029B000480100205BA9953EBD3786350000000028
:1029C00098F98E3CE80B00200000B44390F82020DA
:1029D000012A07D0022A05D0416A41F480214162D0
:1029E00001207047006842690A4342610020704735
:1029F000F0B590F820500468A468012D07D0022D8E
:102A000005D0416A41F4802141620120F0BD04F00B
:102A1000806504F00066354301D1E5005BD5C4F361
:102A20000164022C05D9416A41F400014162012090
:102A3000F0BD0125A5401D608B684FF4C0759BB1AA
:102A4000CE6805EB041733434E6843EAC6030668B5
:102A5000F3514FF4C273076803EB04130E69FE5081
:102A6000097D012909D00DE00E88CB6805EB04171C
:102A700043EA46530668F351EBE70168CE5846F443
:102A80008076CE501179D379567941EA03619379F2
:102A90001B0443EA062319434FF4C676036806EB8A
:102AA000041699511178D37841EA036193785278EA
:102AB0001B0443EA022211434FF4C473026803EB80
:102AC0000413D150006805EB0411425842F0010292
:102AD00042500020F0BD416A41F4001141620120E2
:102AE000F0BD000010B590F82020012A07D0022A7E
:102AF00005D0416A41F480214162012010BD3C486B
:102B000000F50070026842F001020260026822F4DF
:102B10007C52026002684B6A42EA032202600A7D2C
:102B200002F01F0301229A40C3699343C361A0F5D9
:102B30000070CB69B3B9D0F80C329343C0F80C32B3
:102B40008C894B6864F31F434C6900EBC404C4F8E0
:102B500040320C890B6864F31F434C6900EBC404DA
:102B6000C4F84432CB69012B16D1D0F80C32134390
:102B7000C0F80C320C884B6864F31F434C6900EBBF
:102B8000C404C4F840320C89CB6864F31F434C6919
:102B900000EBC404C4F844328B697BB1D0F8043232
:102BA0001343C0F804320B6973B1D0F814321343E5
:102BB000C0F81432096A01290CD010E0D0F80432B0
:102BC0009343C0F80432EEE7D0F814329343C0F8D0
:102BD0001432EFE7D0F81C121143C0F81C12D0F8E1
:102BE000001221F00101C0F80012002010BD000009
:102BF00000640040704730B590F82040012C07D0A9
:102C0000022C05D0416A41F480214162012030BD8F
:102C100021B104682469A4075FD003E00468E46874
:102C2000A40754D04FF4D874056804EB01142D594F
:102C300005F004059560F5B305682D59ED0855605C
:102C400005682C5904F00204D4604FF4DA74056866
:102C500004EB01142D5905F00F05156105682D5978
:102C6000C5F30725956105682C59240C54614FF470
:102C7000DC72046802EB0112A4581C700468A458AA
:102C8000240A5C700468A458240C9C700468A25840
:102C9000120EDA704FF4DE72046802EB0112A458CF
:102CA0001C710468A458240A5C710468A458240C9C
:102CB0009C71046800E016E0A258120EDA71B9B1F6
:102CC0000068016941F020010161002030BD416AC6
:102CD00041F400114162012030BD416A41F400110C
:102CE0004162012030BD05682D596D0D1560A7E7C3
:102CF0000068C16841F02001C160E6E72DE9F05F9E
:102D00000546002428684669D0F804908768D0F802
:102D10000CA0D0F810B0D0F81880F10748D0F9070F
:102D200014D001218160B80703D5284600F094FA39
:102D30000CE0780702D54FF4006407E0380702D5AD
:102D40004FF4805402E0284600F085FAF80516D5C5
:102D500029684FF480708860B80503D5284600F0D4
:102D60007DFA0CE0780502D544F4005407E03805FC
:102D700002D544F4804402E0284600F06EFAF803DD
:102D800016D529684FF480308860B80303D52846EB
:102D900000F066FA0CE0780302D544F4004407E042
:102DA000380302D544F4803402E0284600F057FA94
:102DB000300707D55FEACA6004D544F40074296877
:102DC0001020C86070074FF0080707D55FEA0A7047
:102DD00004D52868C760284600F0B8F9B00706D5C2
:102DE0002868C068800702D0284600F0B1F9700654
:102DF00007D55FEACB6004D544F4806429681020CD
:102E00000861B00607D55FEA0B7004D52868076132
:102E1000284600F0F1F9F00606D528680069800719
:102E200002D0284600F0E9F9B00308D55FEAC9608E
:102E300005D5296810204860284600F0DFF9F00326
:102E400007D55FEA097004D528684760284600F076
:102E500008FA300446D55FEA497040D5F00504D53C
:102E60005FEAC87001D044F00104B00504D55FEA00
:102E7000887001D544F00204700504D55FEA4870FB
:102E800001D544F00404300529D518F0700F26D080
:102E900008F07000402815D006DC102809D0202842
:102EA0000AD0302816D10AE050280ED0602811D15F
:102EB0000EE044F008040DE044F010040AE044F091
:102EC000200407E044F0400404E044F0800401E002
:102ED00044F480742868816921F070018161296857
:102EE00004204860002C05D0686A204368622846A8
:102EF000FFF780FEBDE8F09F70B50446002C03D0BC
:102F000094F8200010B104E0012070BD204600F0CC
:102F10009DF82068016841F00101016000F05EFC4D
:102F2000054605260CE000F059FC401B0A2807D98D
:102F3000606A40F40030606284F82060012070BD57
:102F400020684068C007EED02068016821F00201C7
:102F5000016000F043FC05460CE000F03FFC401B24
:102F60000A2807D9606A40F40030606284F8206063
:102F7000012070BD206840688007EED4207E0128C3
:102F80003FD02068016821F080010160607E012847
:102F90003DD02068016821F040010160A07E012839
:102FA0003BD02068016821F020010160E07E01280B
:102FB00039D02068016841F010010160207F0128AC
:102FC00037D02068016821F008010160607F012886
:102FD00035D02068016821F004010160D4E90201C4
:102FE0000843D4E90412114308436168491E0843A9
:102FF0002168C86100206062012084F82000002060
:1030000070BD2068016841F080010160BEE7206862
:10301000016841F040010160C0E72068016841F0AB
:1030200020010160C2E72068016821F01001016001
:10303000C4E72068016841F008010160C6E7206824
:10304000016841F004010160C8E700002DE9F0418A
:1030500086B00446142101A8FEF723F8364B374A00
:10306000DFF8D08018682168344C03260227401C02
:10307000103200254FF0090C414527D11860012876
:1030800007D1106840F000701060106800F0007008
:103090000090206840F008002060206800F00800E0
:1030A00000900196029703950496CDF814C001A9EB
:1030B000234800F0A3FA00220521142000F02CFC84
:1030C000142000F01BFC06B0BDE8F081DFF874802E
:1030D0004145F8D1116841F080611160116801F03B
:1030E000806100911860012807D1106840F00070DD
:1030F0001060106800F000700090206840F002003E
:103100002060206800F0020000906020019002978B
:1031100003950496CDF814C001A90B4800F06EFA8F
:1031200000220521402000F0F7FB402000F0E6FBE4
:10313000C9E700000064004000050020303802406C
:10314000000C02400068004000040240704700008C
:1031500070B50646214B0021A3F120041D46221D17
:103160003046FFF748FD1E493068884219D11D4A94
:103170002946201D07F01AFF6068B0F5407F04D192
:10318000194A2946201D07F0E5FE61682046B1F581
:10319000806F22D12946BDE87040144A001D07F017
:1031A000EFBE1349884218D1124A2946201D07F064
:1031B000FDFE104A29462032201D07F0F7FE0D4A79
:1031C00029464032201D07F0F1FE0A4A29466032A6
:1031D000201DBDE8704007F0E9BE70BD200C002046
:1031E00000640040B404002098020020080300207E
:1031F000006800403404002070477047704770B585
:10320000044694F82000012805D0606A40F40020AC
:103210006062012070BD022084F8200020680168EF
:1032200021F00101016000F0D9FA05460DE000F03F
:10323000D5FA401B0A2808D9606A40F40030606261
:10324000052084F82000012070BD20684068C00778
:10325000EDD1606270BD704770477047704770472E
:10326000704770472DE9F0410446A76D00F0B6FAAB
:10327000054694F835000026022806D080206065B7
:1032800084F834600120BDE8F0812068016821F0F5
:10329000160101602068416921F080014161206CC4
:1032A00008B9A06C20B12068016821F00801016014
:1032B0002068016821F0010101600BE000F08EFA46
:1032C000401B052806D9202034342062032060707A
:1032D0002670D8E720680068C007EFD134343F205B
:1032E00094F828108840B860012060702670002093
:1032F000C9E790F83510022903D0802141650120EB
:103300007047052180F835100068016821F001013F
:1033100001600020704700002DE9F84304464FF09B
:103320000009CDF800906F484FF416510068B0FBCB
:10333000F1F7A56D2E6894F85C00082202FA00F1FE
:10334000314210D02068016849070CD5016821F08E
:103350000401016094F85C0002FA00F1A960606D5C
:1033600040F00100606594F85C104FF0010808FA25
:1033700001F0304208D021684969090604D5A860E7
:10338000606D40F00200606594F85C100420884095
:10339000304208D021680968890704D5A860606DAB
:1033A00040F00400606594F85C10102088403042C2
:1033B00020D02168096809071CD5A8602068016829
:1033C00049030CD50068000304D4216C91B1204658
:1033D00088470FE0A16C69B1204688470AE0016880
:1033E000C90503D4016821F008010160216C09B10D
:1033F0002046884794F85C102020884030424CD00A
:1034000021680968C90648D5A86094F835000528E0
:103410000BD020680168490330D50068000328D428
:10342000616C51B32046884737E02068016821F07D
:10343000160101602068416921F080014161206C22
:1034400008B9A06C20B12068016821F00801016072
:1034500094F85C103F208840A86084F8358084F898
:103460003490216D00293BD001B02046BDE8F043E7
:103470000847E16B09B1204688470EE00168C9059D
:1034800007D4016821F01001016084F8358084F8C8
:103490003490E16B09B120468847606D00281FD049
:1034A000606DC00714D0052084F8350020680168DD
:1034B00021F0010101600098401C0090B84203D83F
:1034C00020680068C007F6D184F8358084F834900D
:1034D000E16C002904D001B02046BDE8F043084764
:1034E000BDE8F883040500202DE9F041044600F012
:1034F00075F905465CB1022084F83500002684F891
:1035000034602068016821F0010101600DE00120B4
:10351000BDE8F08100F062F9401B052805D92020A4
:103520006065032084F83500F2E720680068C00772
:10353000F0D121680A6820480240D4E90103184309
:10354000D4E903352B43184363691843A36918432F
:10355000E3691843236A18431043626A042A03D1BB
:10356000D4E90B231A43104308602068406920F017
:103570000700656A29460543012704290DD1A06A81
:103580000543E06A48B12046FEF7A0FF28B140207D
:10359000606584F835700120BAE7206845612046EF
:1035A000FEF77EFF94F85C203F21914081606665C4
:1035B00084F835700020ABE73F8010F070B504460A
:1035C00000F00CF90546601C02D004480078044461
:1035D00000F004F9401BA042FAD370BD7005002032
:1035E0007047000010B504490A68024202D0086022
:1035F000FFF7F6FF10BD0000143C01402DE9F84F25
:103600000022DFF89C914FF0010803274FF00F0CC8
:1036100009F1040AA9F1040B08FA02F50B682B4022
:10362000AB426ED10C7904F00304012C01D0022CC2
:1036300015D18668540007FA04FE26EA0E06D1F872
:103640000CE00EFA04FE4EEA060EC0F808E04468EC
:10365000AC430D79C5F300159540254345600C79C1
:10366000E443A40708D0C568540007FA04F6B5433C
:103670008E68A6402E43C6600C7904F00304022C29
:1036800011D1D40800EB8406356A5407E40E0CFA15
:1036900004FE25EA0E05D1F810E00EFA04FE4EEA0B
:1036A000050EC6F820E00568540007FA04F6B54395
:1036B0000E7906F00306A6402E4306604C6814F40B
:1036C000403F67D0374C256845F480452560246825
:1036D00004F480440094344C22F003052E19D6F8EB
:1036E000085894074FEA147E0CFA0EF4A5432F4CA9
:1036F000A04201D1002424E02D4CA04202D101249B
:103700001FE047E02B4CA04201D1022419E02A4CD3
:10371000A04201D1032414E0284CA04201D104248A
:103720000FE0274CA04201D105240AE0254CA0421D
:1037300001D1062405E0244CA04201D1072400E079
:10374000082404FA0EF42C43C6F80848D9F80040BF
:103750009C434D68ED0200D51C43C9F80040DAF8DF
:1037600000409C434D68AD0200D51C43CAF80040A0
:10377000DBF800409C434D68AD0300D51C43CBF8FB
:103780000040074D083D2C689C434E68F60300D569
:103790001C432C60521C102AFFF43EAFBDE8F88F8A
:1037A000083C014044380240003001400000024023
:1037B0000004024000080240000C024000100240D9
:1037C0000014024000180240001C0240002A01D0F0
:1037D0008161704709048161704700000148806879
:1037E000704700007005002002488168027811448B
:1037F000816070477005002010B50B48016841F4E6
:1038000000710160016841F480610160016841F468
:1038100080710160032000F09FF80F2000F006F88F
:1038200000F050F8002010BD003C024030B587B0D9
:10383000054600241F48016841F00101016000684D
:1038400000F00100009001A902A800F04BFE0598CD
:10385000B0B100F06BFE40001749B0FBF1F1491E1A
:1038600016484FF08042026040F2E732C260416089
:1038700004618460846101F081FA04461CB115E0A2
:1038800000F054FEE8E70D4801F0C2FA04466CB9B6
:103890001C2000F033F8102D07D2002229461C20EE
:1038A00000F03AF80648056000E0012407B0204621
:1038B00030BD00004038024040420F00FC140020A0
:1038C0007405002082B00C48016841F48041016019
:1038D000006800F4804001900748001F016841F033
:1038E00080510160006800F08050019000220F219B
:1038F000901E02B000F010B844380240002809DBE6
:1039000000F01F02012191404009800000F1E020F9
:10391000C0F8001170470000F0B40D460D4B1B6855
:10392000C3F30223C3F10704042C00D90424191D96
:10393000072901D2002300E0DB1E012606FA04F16C
:10394000491E294099409E40761E16403143F0BCE6
:1039500006F05DBB0CED00E000F00701054A1068C1
:103960004FF6FF03184040EA012003490843106066
:10397000704700000CED00E00000FA057047006899
:1039800041620020704770B50368586A002907D06B
:103990009C6A00EB144400204FF48275491E0AE033
:1039A00040EA024098620DE005EB80069E5904EB68
:1039B0001644401CC0B28842F6D305EB810144EAAC
:1039C00002405850002070BDD0F8080505F0B5B889
:1039D00001EBC10200EB8202D0F80805D26C04F0C2
:1039E000D9BF01EBC10200EB8202D0F80805D2F882
:1039F0008C2205F03DB8D0F8080505F0A0B80A06FD
:103A000001F00F0101EBC10100EB810101D53C3157
:103A100001E001F51F71006806F050B870B504466A
:103A20000B0601F00F0000EBC00104EB81014FF029
:103A300001024FF0000502D53C314A7002E001F569
:103A40001F714D70087094F8BC04012808D084F8E8
:103A5000BC24206805F0EAFC84F8BC54002070BD4A
:103A6000022070BD70B5044601F00F0062689042FC
:103A700001D9012070BD0B0601F00F0101EBC1015E
:103A800004EB81014FF001024FF0000502D53C31FB
:103A90004A7002E001F51F714D708D70087094F846
:103AA000BC04012808D084F8BC24206805F0B2FECC
:103AB00084F8BC54002070BD022070BD01F00F01DD
:103AC00001EBC10100EB8100D0F89C0270472DE9A9
:103AD000F04104460F0601F00F0000EBC00104EBBB
:103AE00081014FF001064FF0000502D53C314E70C8
:103AF00002E001F51F714D700870CA600B714A78C1
:103B000002B10881022B00D14D7194F8BC04012848
:103B100009D084F8BC64206805F0D4FB284684F8FA
:103B2000BC54BDE8F0810220FBE770B50D4605F0FE
:103B30000F0404EBC40100EB810101F51F710A6160
:103B40008B6100230B624B700C700369012B00D159
:103B50004A612A0705D0027C006805F0B3FE002008
:103B600070BD027C006805F09FFDF8E770B5044663
:103B70000D46616805F00F00884201D9012070BD33
:103B800029064FF000064FF0010206D500EBC001F8
:103B900004EB81013C314A7006E005EBC50104EB02
:103BA000810101F51F714E708A70087094F8BC0491
:103BB000012807D084F8BC24206805F057FE2807A8
:103BC00002D007E0022070BD217C04F2C4422068CC
:103BD00005F0F6FD84F8BC64002070BD70B50D469C
:103BE00005F00F0404EBC40100EB81013C310A61D4
:103BF0008B6100230B6201234B700C700369012B56
:103C000000D14A612A0705D0027C006805F05AFEFF
:103C1000002070BD027C006805F046FDF8E72DE944
:103C2000F84F04462568284605F0F6FF00287ED1A7
:103C3000206806F01DF8002879D0D5F80808C0F3F0
:103C40000D20C4F8FC04206806F012F8800704D5A3
:103C50002068416901F002014161206806F008F81E
:103C6000C10604F2C440009035D52068816921F076
:103C7000100181612F6A07F00F0000EBC00004EB18
:103C8000800606F51F76C7F34340022802D00628B7
:103C900012D01BE047F6F070074217D0C7F30A12A4
:103CA00017462846316905F0E7FF3069384430612E
:103CB000306A3844306209E008222846009905F04D
:103CC000DBFF306AC7F30A1108443062206881695B
:103CD00041F010018161206805F0CAFF00034FF038
:103CE000080B4FF000094FF001085ED50026206850
:103CF00005F09DFF824655E05FEACA704FD0F1B2F1
:103D0000206805F0ADFF0746F80707D005EB461021
:103D1000C0F8088B3146204602F0E8FC380709D588
:103D200005EB4610C0F808BB3146204600E0F9E13B
:103D300002F0B8FCF80604D505EB46111020C1F8D6
:103D4000080BB8071CD56869000605D5D5F8040826
:103D500040F48061C5F8041806EBC60004EB80004F
:103D600000F51F70C178012905D180F80390F1B2E8
:103D7000204600F0DDF905EB46110220C1F8080BE2
:103D8000B80604D505EB46102021C0F8081BB8047E
:103D900005D505EB46104FF40051C0F8081B761C02
:103DA0004FEA5A0ABAF1000FA6D1206805F060FF69
:103DB00040036CD5206805F033FF8246002663E09F
:103DC0005FEACA705DD0F1B2206805F037FF0746A0
:103DD000F80723D006F00F0108FA01F0D5F83418DF
:103DE0008143C5F8341805EB4610C0F808892069EE
:103DF00001280FD106EBC60004EB8000D0E91221A8
:103E00001144C16436B9606D20B920680121009A5F
:103E100005F0D6FCF1B22046FFF7DAFD380703D5EE
:103E200005EB4610C0F808B9F80604D505EB4611B5
:103E30001020C1F80809780604D505EB461040218A
:103E4000C0F80819B80716D53146284605F0B0FE67
:103E500006EBC60004EB80003C30C178012905D197
:103E600080F80390F1B2204600F05EF905EB4611B0
:103E70000220C1F80809380603D53146204602F071
:103E8000A7FC761C4FEA5A0ABAF1000F98D12068B5
:103E900005F0EEFE002811DAD5F8040820F0010143
:103EA000C5F8041894F8F404012829D0204600F03D
:103EB0000EFA2068416901F000414161206805F077
:103EC000D7FE00050BD5D5F80808C00702D020465C
:103ED00000F042FA2068416901F400614161206804
:103EE00005F0C6FEC00461D5D5F8040820F0010134
:103EF000C5F804181021206805F05AFE002120E0C2
:103F000084F8F49400212046FFF738FDD1E705EB53
:103F1000411000F510604FF67F328260036823F491
:103F200000130360C0F80822D0F8002222F4001227
:103F3000C0F80022D0F8002242F00062C0F800224F
:103F4000491C60688842E2D8D5F81C0840F001118D
:103F5000C5F81C18206B60B1D5F8840840F00B013F
:103F6000C5F88418D5F8440840F00B01C5F844188A
:103F70000CE0D5F8140842F22B010843C5F81408E8
:103F8000D5F8100840F00B01C5F81018D5F8000856
:103F900020F4FE61C5F80018217C2068009A05F025
:103FA0000FFC2068416901F480514161206805F0EF
:103FB0005FFE800415D5206805F0C6F9206805F07D
:103FC0001BFEE06000F0ACFA0146227B206805F0A1
:103FD000B9FE204600F064F92068416901F40051FF
:103FE0004161206805F044FE000707D5204600F037
:103FF00072F92068416901F008014161206805F00B
:1040000037FE000615D5A86920F08001A9610126B8
:104010000CE006EBC60004EB800090F87F0201285C
:1040200003D1F1B22046FFF7EAFC761C6068B0428B
:10403000EFD8206805F01CFEC00220D5012616E04E
:1040400005EB4610D0F8001906EBC60004EB800023
:1040500090F84020012A09D1002907DA80F83F8032
:10406000F0B240F080012046FFF7C9FC761C606882
:10407000B042E5D82068416901F4801141612068AF
:1040800005F0F6FD800230D5012026E005EB401159
:10409000D1F8001B00EBC00204EB820292F88032E0
:1040A000012B19D1002917DA94F8FC3401F480317E
:1040B00003F0010399420FD182F87F82A96941F090
:1040C0008002AA616969090606D4D5F8040840F49B
:1040D0000070C5F8040803E0401C61688142D5D82F
:1040E0002068416901F400114161206805F0C0FDBC
:1040F000400007D52046FFF767FC2068416901F0C2
:1041000080414161206805F0B3FD40070AD5206871
:104110004568680702D52046FFF76DFC20684168B6
:1041200029434160BDE8F88FD0F8080504F05CBD74
:10413000D0F8080504F06DBD2DE9F0418AB00446C1
:10414000002C05D0266894F8BD04002520B108E0B5
:1041500001200AB0BDE8F08184F8BC54204600F08C
:104160005DF8032084F8BD04F06BC00500D4256120
:10417000206805F093FA04F1100128228846684669
:10418000FCF733FF94E80F0005F0ECF8022718B1B4
:1041900084F8BD740120DCE70021206805F08BFD68
:1041A000002101260DE001EBC10004EB80003C3052
:1041B0004670017001810571C56005618561491C0A
:1041C000C9B260688842EED800210DE001EBC10061
:1041D00004EB800000F51F70457001700571C5602B
:1041E00005618561491CC9B260688842EED8282201
:1041F00041466846FCF7F9FE94E80F0005F096F991
:1042000018B184F8BD740120A3E784F8385084F80D
:10421000BD64206805F07CF900209AE710B586B0EF
:104220000446142101A8FCF73CFF2068B0F1A04F20
:104230002FD100211848026842F001020260006894
:1042400000F0010000904FF4C05001900220029055
:104250000391032004900A20059001A90F48FFF75D
:10426000CDF90D48001D016841F0800101600A4848
:104270001430016841F480410160006800F480401E
:104280000090002205214320FFF746FB4320FFF763
:1042900035FB06B010BD000030380240000002407F
:1042A00070B504460125E06800280ED0022801D030
:1042B000FEF76DF92946D4F8080504F01BFDD4F883
:1042C0000805BDE8704004F0CEBC0025F2E7D0F848
:1042D000080504F0F8BCD0F8080504F0FEBC10B5E1
:1042E000044694F8BC0401280BD0012084F8BC04D7
:1042F00084F83810206805F00EFD002084F8BC0416
:1043000010BD022010BDD0F8082500F2C4411046AF
:1043100004F0FCBC10B50446206894F8BC140129D4
:1043200006D0012184F8BC14A16A012902D008E05A
:10433000022010BDA169012903D0816B41F48031B5
:104340008163206805F00CFC206805F0D3F800209C
:1043500084F8BC0410BD000010B50446D4F808056C
:1043600004F016FD2068D0F8001E41F00101C0F8ED
:10437000001E206A002804D00248016841F00601AE
:10438000016010BD10ED00E0704700002DE9F0471E
:1043900004460D46002C13D0DFF82891D9F8000010
:1043A000EFB200F00700A8420CD289F80070D9F8EB
:1043B000000000F00700A84204D00120BDE8F0870B
:1043C0000120FBE72068404E810712D5400703D546
:1043D000306840F4E05030602078000703D5306842
:1043E00040F4604030603068A16820F0F00008437D
:1043F00030602078C00731D033496068083901281F
:1044000008D002280BD0032809D0096889070BD4EB
:104410000120D3E70968890306D40120CEE70968A3
:10442000890101D40120C9E7316821F0030101436A
:104430003160FFF7D3F9804641F2883A07E0FFF791
:10444000CDF9A0EB0800504501D90320B6E730684C
:10445000616800F00C00B0EB810FF0D1D9F80000DA
:1044600000F00700A84209D989F80070D9F80000C7
:1044700000F00700A84201D001209FE72078400704
:1044800005D53068E16820F4E050084330602078BA
:10449000000706D53068216920F4604040EAC10079
:1044A000306000F063F83168084AC1F30311515CD1
:1044B000C8400749086007480068FFF7B7F90020BF
:1044C0007CE70000003C024008380240A4DA000803
:1044D000040500207405002001490120C8647047CC
:1044E000000047420F2202600B4A136803F00303E7
:1044F0004360136803F0F0038360136803F4E05330
:10450000C360126802F46042D20802610348006886
:1045100000F007000860704708380240003C024085
:1045200001480068704700000405002000B5FFF74F
:10453000F7FF04490968044AC1F38221515CC8406D
:1045400000BD000008380240B4DA000800B5FFF7EB
:10455000E7FF04490968044AC1F34231515CC8408D
:1045600000BD000008380240B4DA000810B5174852
:10457000006810F00C01164816D0164B042912D012
:10458000082911D1114C241F216801F03F02216834
:1045900049020AD52068C0F38810A0FB030100235C
:1045A000FCF767FC09E0184610BD21680023C1F341
:1045B0008811A1FB0001FCF75CFC2168C1F30141FB
:1045C000491C4900B0FBF1F010BD00000838024062
:1045D0000024F400001BB70010B505480068000671
:1045E00005D5FFF7D1FE02498020891C087010BD57
:1045F0000C3802402DE9F84F0446002C13D02078E7
:10460000DFF8A083C007A8F1040556D008F1040024
:104610000168C1F3810101290CD00068C0F3810059
:10462000022803D00DE00120BDE8F88FD8F8000083
:10463000400206D5286880033FD5606870BB012022
:10464000F2E76068B0F5803F10D0B0F5A02F12D02F
:10465000286820F480302860286820F480202860B2
:104660006068E0B1FFF7BAF8064614E0286840F445
:1046700080302860F4E7286840F4802028602868AB
:1046800040F480302860EBE7FFF7A8F8801B64282F
:1046900001D90320C8E728688003F5D50DE0FFF7AE
:1046A0009DF8064606E0FFF799F8801B642801D9BB
:1046B0000320B9E728688003F5D42078BA4F800733
:1046C0004FF0000948D5B748001D016811F00C0FE4
:1046D00008D00068C0F38100022813D1D8F8000088
:1046E00040020FD42868800704D5E068012801D073
:1046F000012099E72868216920F0F80040EAC1000C
:10470000286029E0E068B8B101203860FFF766F85A
:10471000064606E0FFF762F8801B022801D9032055
:1047200082E728688007F5D52868216920F0F8001D
:1047300040EAC10028600FE0C7F80090FFF74EF88C
:10474000064606E0FFF74AF8801B022801D903203D
:104750006AE728688007F5D42078000729D5DFF8B4
:1047600044A2924861690AF1700A89B1012101608D
:10477000FFF734F8064606E0FFF730F8801B022802
:1047800001D9032050E7DAF800008007F4D510E0E3
:10479000C0F80090FFF722F8064606E0FFF71EF883
:1047A000801B022801D903203EE7DAF800008007C9
:1047B000F4D42078400778D54FF0000A79483C308F
:1047C0000068C0000BD477483C30016841F080514C
:1047D0000160006800F0805000904FF0010ADFF89F
:1047E000D0B1DBF80000C00514D4DBF8000040F4C1
:1047F0008070CBF80000FEF7F1FF064606E0FEF7FA
:10480000EDFF801B022801D903200DE7DBF8000033
:10481000C005F4D5634EA0686C3601280FD005287A
:1048200012D0306820F001003060306820F00400C1
:104830003060A068F8B1FEF7D1FF834617E030681A
:1048400040F001003060F4E7306840F00400306070
:10485000306840F001003060EBE7FEF7BFFFA0EBEF
:104860000B0141F28830814201D90320DCE6306837
:104870008007F2D510E0FEF7B1FF834609E0FEF7AE
:10488000ADFFA0EB0B0141F28830814201D903203A
:10489000CAE630688007F2D4BAF1010F05D1414869
:1048A0003C30016821F080510160A069C0B33D49EE
:1048B000091D09684FF0FF36C1F38101022946D076
:1048C000022805D0C7F86090FEF788FF04463AE05A
:1048D000C7F86090FEF782FF814607E0FEF77EFF93
:1048E000A0EB0900022801D903209DE62868800179
:1048F000F4D4D4E907010843616AA26A890106EB8E
:10490000520241EA0241084394F82C1040EA016047
:10491000C8F8000001203866FEF760FF044607E093
:104920003DE0FEF75BFF001B022801D903207BE678
:1049300028688001F5D532E0FEF750FF001B022801
:1049400001D9032070E628688001F5D427E001280A
:1049500023D0D8F80000E26900F4800191421AD116
:10496000226A00F03F01914215D147F6C071626A98
:104970000140B1EB821F0ED1A26A00F4403106EB78
:104980005202B1EB024F06D194F82C1000F0706087
:10499000B0EB016F03D0012046E6012044E6002081
:1049A00042E600000438024000004742800E4742C1
:1049B0000070004070B50446002C09D0606A0025E4
:1049C00040B125616561A56294F8510040B10CE0E9
:1049D000012070BD6068B0F5827FF4D0E561F2E738
:1049E00084F85050204600F045F8022084F8510029
:1049F0002068016821F040010160A088218900F44D
:104A0000827001F404410843A18901F40061084364
:104A1000217C01F002010843217D01F001010843DE
:104A2000218B01F400710843217F01F03801084314
:104A300094F8201001F080010843218D01F4005109
:104A4000084321680860A069042101EA104094F835
:104A5000241001F010010843216848602068C169F2
:104A600021F40061C1616565012084F851000020D6
:104A700070BD0000F0B587B00446142102A8FCF711
:104A800010FB1C492068884232D100271A4801686F
:104A900041F480510160006800F480500190164894
:104AA0001438016841F002010160016801F002015F
:104AB0000191016841F001010160006800F001000E
:104AC000019018200290022603960497032505956D
:104AD0000524069402A90948FEF790FD8020029063
:104AE000039604970595069402A90548FEF786FDEE
:104AF00007B0F0BD003001404438024000040240DD
:104B0000000002402DE9F84F04460A9E8A4693466B
:104B10001F4601254FF0000894F8500001280ED0E0
:104B2000012084F85000FEF759FE814694F85100A8
:104B3000616801280DD0B1F5827F07D102E0022023
:104B4000BDE8F88FA16809B9042802D04FF0020827
:104B5000C3E0BAF1000F28D0BBF1000F25D0380018
:104B600023D094F85100042802D0052084F8510085
:104B700000206065C4F838B0E787A787C4F830A084
:104B8000E786A7862064606420680168490603D42C
:104B9000016841F040010160E068B0F5006F07D0A6
:104BA0006068E8B3012F48D07DE04FF0010894E041
:104BB000606808B1012F39D1206B21680088C86076
:104BC000206B801C2063E08E401EE0862EE0206873
:104BD000816889070DD5E18E59B1012D09D1216B6D
:104BE0000988C160206B801C2063E08E401EE08637
:104BF000002520688168C9070BD0E18F49B1C068E2
:104C0000A16B0880A06B801CA063E08F401EE08732
:104C10000125FEF7E3FDA0EB0900B04206D300E05A
:104C20000BE0701C02D04FF0030856E0E08E002825
:104C3000CDD1E08F0028CAD13BE0206B21680078FD
:104C40000873206B401C2063E08E401EE0862AE043
:104C50002068816889070DD5E18E59B1012D09D1F0
:104C6000216B09780173206B401C2063E08E401E8D
:104C7000E086002520688168C9070BD0E18F49B123
:104C8000C068A16B0870A06B401CA063E08F401E41
:104C9000E0870125FEF7A2FDA0EB0900B04201D399
:104CA000701C11D186B1E08E0028D1D1E08F002890
:104CB000CED14A463146204602F00CFD38B14FF0C5
:104CC00001082020606508E04FF0030805E0A068B7
:104CD00018B92068C1688068009001205034607065
:104CE0000020207040462BE77047704770B590F861
:104CF0003C20012A31D0012680F83C60022280F855
:104D00003D2002685468936824F070050C682C43B9
:104D10005460134C0268A24214D0B2F1804F11D0FB
:104D2000104CA2420ED0104CA2420BD00F4CA2420B
:104D300008D00F4CA24205D00E4CA24202D00E4C1D
:104D4000A24204D123F080034968194391603C30AA
:104D5000467000210170002070BD022070BD00006F
:104D6000000001400004004000080040000C00402A
:104D700000040140004001400018004010B5044606
:104D8000002C03D094F83D0010B107E0012010BDC5
:104D9000002084F83C00204600F016F8022084F839
:104DA0003D00211D206802F097FD01203D34607216
:104DB0006070A070E07020716071A071E07120726D
:104DC0002070002010BD000008B500680D49884221
:104DD00009D10D48016841F004010160006800F04C
:104DE0000400009008BD09498842FBD10648001D17
:104DF000016841F400310160006800F40030009067
:104E000008BD000000080040403802400044014056
:104E100090F83D10012901D001207047022180F84F
:104E20003D100168CA6842F00102CA600068144976
:104E3000884214D0B0F1804F11D0124988420ED070
:104E4000114988420BD01149884208D01049884244
:104E500005D01049884202D00F49884209D18168A3
:104E600001F00701062908D0016841F00101016045
:104E700003E0016841F0010101600020704700007B
:104E8000000001400004004000080040000C004009
:104E900000040140004001400018004070B5044685
:104EA000002594F83C00012817D0012684F83C60C6
:104EB000022084F83D002068826822F0770222F404
:104EC0007F4282600868502838D00DDC202853D0FB
:104ED00005DC90B3102811D14EE0022070BD3028BF
:104EE0004AD040280AD13DE0602831D070280CD04B
:104EF000B0F5805F03D0B0F5005F12D001253C34DF
:104F0000667000202070284670BDCB68D1E9012171
:104F1000206802F054FD2068816841F077018160CB
:104F2000EDE7CB68D1E90121206802F048FD206857
:104F3000816841F480418160E1E71DE0CA68496809
:104F4000206802F01FFE5021206802F042FDD6E7E3
:104F5000CA684968206802F026FE6021206802F0D5
:104F600038FDCCE7CA684968206802F00BFE402192
:104F7000206802F02EFDC2E722680146104602F0CA
:104F800028FDBCE7704770B50446206801694FF002
:104F90000005C943890716D4C168C943890712D4DB
:104FA000E91E01610120207720688069800703D015
:104FB0002046FFF7E7FF05E0204600F0DFF8204637
:104FC00000F06FF9257720680169C943490718D4B3
:104FD000C168C943490714D46FF00401016102207C
:104FE00020772068806910F4407F03D02046FFF7C7
:104FF000C9FF05E0204600F0C1F8204600F051F955
:10500000257720680169C943090717D4C168C943D6
:10501000090713D46FF0080101610420207720688C
:10502000C069800703D02046FFF7ACFF05E02046AB
:1050300000F0A4F8204600F034F9257720680169D3
:10504000C943C90618D4C168C943C90614D46FF04E
:1050500010010161082020772068C06910F4407FAA
:1050600003D02046FFF78EFF05E0204600F086F8CB
:10507000204600F016F9257720680169C943C90761
:1050800008D1C168C943C90704D1891E01612046FE
:1050900000F076F920680169C943090609D4C1689E
:1050A000C943090605D46FF0800101612046FFF76E
:1050B0001BFE20680169C943490609D4C168C94378
:1050C000490605D46FF040010161204600F05FF908
:1050D00020680169C94389060BD4C168C9438906A0
:1050E00007D46FF0200101612046BDE87040FFF752
:1050F000FCBD70BD30B587B00446142102A8FBF793
:10510000D0FF194D20681949022201230324A84227
:1051100013D1086840F008000860086800F0080033
:10512000019050030290039204930594069202A901
:105130000F48FEF763FA07B030BD0E4DA842FAD112
:10514000086840F020000860086800F02000019026
:1051500040200290039204930592069402A9064807
:10516000FEF74CFAE7E70000000800403038024044
:10517000000C02400044014000140240704770B52A
:1051800004460D46002694F83C0001280FD001206B
:1051900084F83C006AB1042A1FD0082A32D00C2AB5
:1051A00044D00126002084F83C00304670BD022027
:1051B00070BD2946206802F015FC2068816941F025
:1051C000080181612068816921F004018161206802
:1051D00081692A6911438161E4E72946206802F068
:1051E00035FC2068816941F4006181612068816932
:1051F00021F480618161206881692A6941EA022184
:105200008161CFE72946206802F05AFC2068C16915
:1052100041F00801C1612068C16921F00401C16148
:105220002068C1692A691143C161BBE7294620682A
:1052300002F07EFC2068C16941F40061C161206810
:10524000C16921F48061C1612068C1692A6941EAAC
:105250000221C161A6E710B50446002C03D094F8E2
:105260003D0010B107E0012010BD002084F83C0093
:10527000204600F015F8022084F83D00211D20682A
:1052800002F02AFB01203D3460726070A070E07073
:1052900020716071A071E07120722070002010BD3B
:1052A0007047704710B50446002909D004290AD078
:1052B00008290BD094F8410001280AD0012010BD24
:1052C00094F83E00F8E794F83F00F5E794F84000C2
:1052D000F2E70220A9B3042937D0082938D084F88E
:1052E00041000122206802F05DFB1E4920681E4A31
:1052F000884201D0904203D1436C43F4004343649D
:105300002068884213D0B0F1804F10D017498842EE
:105310000DD0174988420AD01649884207D09042DA
:1053200005D01549884202D01449884213D18168BA
:1053300001F00701062912D0016841F00101016066
:105340000DE0FFE784F83E00CBE784F83F00C8E7B4
:1053500084F84000C5E7016841F0010101600020C8
:1053600010BD0000000001400004014000040040A6
:1053700000080040000C00400040014000180040C0
:105380000068B0F1804F01D1FEF72EBA7047704728
:1053900010B50446104A2068904203D1204604F01C
:1053A000AFFD05E00D4A904202D1204604F06AFDAF
:1053B000012020632068C16841F01001C1602068AD
:1053C000416941F040014161A06B0068016841F012
:1053D0000101016010BD00000048004000100140C4
:1053E00070470000F8B5044622681068D168536918
:1053F00000F00F06002E08D1850606D58D0604D5CF
:105400002046BDE8F84002F01CBC0025002E66D006
:1054100003F0010601F49077374360D0C20705D04E
:10542000CA0503D5226C42F001022264420705D569
:10543000DA0703D0226C42F002022264820705D50B
:10544000DA0703D0226C42F004022264020707D577
:1054500001F02002324303D0226C42F008022264A1
:10546000226C002A31D0800604D5880602D5204659
:1054700002F0E7FB20684069C0F38010216C090747
:1054800000D438B3204602F0A8FB206840694006EB
:105490001CD52068143050E8001F21F0400140E87E
:1054A0000012002AF5D1A06B60B157490165A06BCD
:1054B000FDF71FFF002808D0A06B016D01B0BDE80B
:1054C000F04008472046FFF78BFFF8BD2046FFF766
:1054D00087FFF8BD2046FFF783FF2564F8BD236BE7
:1054E000012B7ED1C3067CD5CB067AD510685068D7
:1054F000009050694FF02003400643D5A16B086827
:10550000406880B20028E9D0A28D8242E6D9E085C9
:10551000C869B0F5807F2DD020680C3050E8001F9E
:1055200021F4807140E80012002AF5D1206814307F
:1055300050E8001F21F0010140E80012002AF5D1D7
:105540002068143050E8001F21F0400140E80012AC
:10555000002AF5D184F83E30256320680C3050E8ED
:10556000001F21F0100140E80012002AF5D1A06BC5
:10557000FDF778FEA08DE18D401A81B22046FFF73D
:1055800007FFF8BDA08DE18D401A81B2E08D0028A3
:10559000F7D00029F5D020680C3050E8002F22F415
:1055A000907240E80026002EF5D12068143050E8B3
:1055B000002F22F0010240E80026002EF5D184F8E9
:1055C0003E30256320680C3050E8002F22F0100296
:1055D00040E80023002BF5D12046FFF7D9FEF8BDA7
:1055E000FFE7020606D50A0604D52046BDE8F840C6
:1055F00002F014BC4006F2D54806F0D52046BDE8BE
:10560000F84002F011BB0000CB7B000870B50446E7
:10561000002C04D094F83D00002510B106E00120D4
:1056200070BD84F83C50204600F022F8242084F815
:105630003D002068C16821F40051C160204602F09D
:1056400063FB2068016921F4904101612068416990
:1056500021F02A0141612068C16841F40051C16014
:105660002564202084F83D0084F83E00002070BDB1
:105670002DE9F04786B00446142101A8FBF711FD7F
:105680005C4A022521685C480026AF064FF00309FA
:105690004FF0070A4FF48068914269D1564914319E
:1056A0000A6842F010020A60096801F010010091D6
:1056B000016841F002010160016801F002010091FE
:1056C000016841F001010160006800F001000090F4
:1056D0008020019002950396CDF81090CDF814A08B
:1056E00001A94648FDF78AFF28020190029503961A
:1056F000CDF81090CDF814A001A94148FDF77EFF28
:10570000414D404828606F60AE60EE60C5F8108083
:105710006E61AE61EE612E626E622846FDF7E4FEB8
:1057200008B1FCF734FFA563AC633648364D7830DA
:10573000603528606F604020A860EE60C5F810807A
:105740006E61AE61EE612E626E622846FDF7CCFEA0
:1057500008B1FCF71CFF6563AC630022052125201E
:10576000FEF7DAF82520FEF7C9F806B0BDE8F087A5
:10577000264A9142F9D1204910310A6842F4802228
:105780000A60096801F480210091016841F0040178
:105790000160006800F0040000904FF44060019048
:1057A00002950396CDF81090CDF814A001A91848E1
:1057B000FDF724FF144D1748C03528606F60AE60B8
:1057C000EE60C5F810806E61AE618015E8612E62F2
:1057D0006E622846FDF788FE08B1FCF7D8FEA56387
:1057E000AC63002205212720FEF796F82720FEF75C
:1057F00085F8BAE70010014030380240000402404A
:105800000000024040640240DC13002000480040D9
:1058100000080240286002407047704710B5FDF74D
:10582000DDFF4FF08041496A00EB4002C2EBC0103F
:1058300001EBC00010BDFEE702460021014804F064
:1058400098BB00000C13002010B51249124800F05C
:1058500057FC11480F49203000F052FC0E480D490A
:10586000403000F04DFC0C480C4A0221603001F041
:1058700027F80A4A0848903ABDE81040A2F1900182
:105880009FED071ADFED070AB2EE040AB03001F00F
:1058900077BA000000000020B80600202C0100208C
:1058A000002474496F12833A2DED048B84B00020DC
:1058B0000190FFF7C9FF504800F1400A20309FEDEA
:1058C0004F9AA0F16804039004F1280004F1340B0E
:1058D00004F1F80604F52077DFF824819FED498A6A
:1058E000DFED498A4FF00509484D029005F0DCFBD9
:1058F00001904648FBF7BAFE95ED020A3E4800F0DB
:1059000019FC84ED0E0A95ED030A504600F012FCD6
:1059100084ED0F0A95ED010A039800F00BFC84ED6D
:105920000D0AD5E905122869C4E90B12A0623248B4
:10593000B0EE490A5A46B030029901F07FFAD7E931
:1059400005123869C4E90812E06196ED670A20EE95
:10595000080A84ED000A96ED660A20EE080A84ED36
:10596000010AD6ED680A60EE880AC4ED030AD4ED98
:10597000100A70EE600A10EE900A404505D9B4F89E
:105980004400401CA4F8440009E010EE900A2049AD
:10599000884204DDB4F84400401EA4F8440084EDBD
:1059A000100AB4F9440000EE900AF8EEE00A00EEA6
:1059B000A80A84ED020A94ED0B0A20EE080A84ED91
:1059C000040A94ED0C0A20EE080A84ED050A94ED11
:1059D0000A0A20EE080A84ED060A0198B0FBF9F1E4
:1059E00009FB110018B995ED070AFBF7CFFF01215C
:1059F00001A805F04CFB79E7B80600206F12833A46
:105A0000000034C3E12E65420000B443280C00209E
:105A100000003443F0B500230A2530263727002440
:105A200012E0B5EB107F04D906EB107C01F813C02F
:105A300003E007EB107C01F813C0000101EB430CFD
:105A40008CF801405B1CDBB29342EAD3F0BD2DE938
:105A5000F04104460D4616461F46042020800820CB
:105A60006080002D00D017B9FE2084F8C400257195
:105A70006671A77100202062012204F12003114603
:105A800004F11800FAF77EFD20887843FBF7C2F98D
:105A9000E06021887943FBF704FB20886843FBF72B
:105AA000B9F9C4F8C80021886943FBF7FAFA2179EB
:105AB000012204F12C00D4F8C830FAF763FD2088E5
:105AC0006843FBF7A7F9C4F8CC0021886943FBF7CA
:105AD000E8FA2179012204F13400D4F8CC30FAF745
